{
  "address": "0x050cA10139502252F5353D758EA8C92621DA6582",
  "abi": [
    {
      "inputs": [],
      "name": "stader",
      "outputs": [
        {
          "internalType": "address",
          "name": "",
          "type": "address"
        }
      ],
      "stateMutability": "view",
      "type": "function"
    },
    {
      "stateMutability": "payable",
      "type": "receive"
    }
  ],
  "transactionHash": "0xe299953e4a21493c1e86dbf7d3a81a3baaa66d0aa1a0190d4d6e89eebfc25a6d",
  "args": [],
  "numDeployments": 1,
  "solcInputHash": "2de69563d5f97798cd503486c6937d4e",
  "bytecode": "0x608060405234801561001057600080fd5b50610148806100206000396000f3fe6080604052600436106100225760003560e01c8063ce79ecad146100b557600080fd5b366100b05760405163f340fa0160e01b815233600482015273cf5ea1b38380f6af39068375516daf40ed70d2999063f340fa019034906024016020604051808303818588803b15801561007457600080fd5b505af1158015610088573d6000803e3d6000fd5b50505050506040513d601f19601f820116820180604052508101906100ad91906100f9565b50005b600080fd5b3480156100c157600080fd5b506100dd73cf5ea1b38380f6af39068375516daf40ed70d29981565b6040516001600160a01b03909116815260200160405180910390f35b60006020828403121561010b57600080fd5b505191905056fea26469706673582212208a6a0f7bc8ea116c28442051f6b17e4d7169745d611410ee92c7c08e0e30b77f64736f6c63430008090033",
  "devdoc": {
    "kind": "dev",
    "methods": {},
    "version": 1
  },
  "userdoc": {
    "kind": "user",
    "methods": {},
    "version": 1
  },
  "storageLayout": {
    "storage": [],
    "types": null
  }
}